{
  "contracts/base/FallbackManager.sol": {
    "FallbackManager": {
      "abi": [
        {
          "constant": false,
          "inputs": [
            {
              "name": "handler",
              "type": "address"
            }
          ],
          "name": "setFallbackHandler",
          "outputs": [],
          "payable": false,
          "stateMutability": "nonpayable",
          "type": "function"
        },
        {
          "payable": true,
          "stateMutability": "payable",
          "type": "fallback"
        }
      ],
      "evm": {
        "bytecode": {
          "linkReferences": {},
          "object": "608060405234801561001057600080fd5b50610251806100206000396000f3fe60806040526004361061003b576000357c010000000000000000000000000000000000000000000000000000000090048063f08a0323146100e7575b600034118061004d5750600080369050145b15610057576100e5565b60007f6c9a6c4a39284e37ed1cf53d337577d14212a4870fb976a4366c693b939918d56001029050600081549050600073ffffffffffffffffffffffffffffffffffffffff168173ffffffffffffffffffffffffffffffffffffffff161415156100e257366000803760008036600080855af13d6000803e60008114156100dd573d6000fd5b3d6000f35b50505b005b3480156100f357600080fd5b506101366004803603602081101561010a57600080fd5b81019080803573ffffffffffffffffffffffffffffffffffffffff169060200190929190505050610138565b005b3073ffffffffffffffffffffffffffffffffffffffff163373ffffffffffffffffffffffffffffffffffffffff161415156101be576040517f08c379a000000000000000000000000000000000000000000000000000000000815260040180806020018281038252602c8152602001806101fa602c913960400191505060405180910390fd5b6101c7816101ca565b50565b60007f6c9a6c4a39284e37ed1cf53d337577d14212a4870fb976a4366c693b939918d56001029050818155505056fe4d6574686f642063616e206f6e6c792062652063616c6c65642066726f6d207468697320636f6e7472616374a165627a7a72305820652b093eab155eb4554c62e3defaf66e875dfbb6370f9f568c732502ca260d9d0029",
          "opcodes": "PUSH1 0x80 PUSH1 0x40 MSTORE CALLVALUE DUP1 ISZERO PUSH2 0x10 JUMPI PUSH1 0x0 DUP1 REVERT JUMPDEST POP PUSH2 0x251 DUP1 PUSH2 0x20 PUSH1 0x0 CODECOPY PUSH1 0x0 RETURN INVALID PUSH1 0x80 PUSH1 0x40 MSTORE PUSH1 0x4 CALLDATASIZE LT PUSH2 0x3B JUMPI PUSH1 0x0 CALLDATALOAD PUSH29 0x100000000000000000000000000000000000000000000000000000000 SWAP1 DIV DUP1 PUSH4 0xF08A0323 EQ PUSH2 0xE7 JUMPI JUMPDEST PUSH1 0x0 CALLVALUE GT DUP1 PUSH2 0x4D JUMPI POP PUSH1 0x0 DUP1 CALLDATASIZE SWAP1 POP EQ JUMPDEST ISZERO PUSH2 0x57 JUMPI PUSH2 0xE5 JUMP JUMPDEST PUSH1 0x0 PUSH32 0x6C9A6C4A39284E37ED1CF53D337577D14212A4870FB976A4366C693B939918D5 PUSH1 0x1 MUL SWAP1 POP PUSH1 0x0 DUP2 SLOAD SWAP1 POP PUSH1 0x0 PUSH20 0xFFFFFFFFFFFFFFFFFFFFFFFFFFFFFFFFFFFFFFFF AND DUP2 PUSH20 0xFFFFFFFFFFFFFFFFFFFFFFFFFFFFFFFFFFFFFFFF AND EQ ISZERO ISZERO PUSH2 0xE2 JUMPI CALLDATASIZE PUSH1 0x0 DUP1 CALLDATACOPY PUSH1 0x0 DUP1 CALLDATASIZE PUSH1 0x0 DUP1 DUP6 GAS CALL RETURNDATASIZE PUSH1 0x0 DUP1 RETURNDATACOPY PUSH1 0x0 DUP2 EQ ISZERO PUSH2 0xDD JUMPI RETURNDATASIZE PUSH1 0x0 REVERT JUMPDEST RETURNDATASIZE PUSH1 0x0 RETURN JUMPDEST POP POP JUMPDEST STOP JUMPDEST CALLVALUE DUP1 ISZERO PUSH2 0xF3 JUMPI PUSH1 0x0 DUP1 REVERT JUMPDEST POP PUSH2 0x136 PUSH1 0x4 DUP1 CALLDATASIZE SUB PUSH1 0x20 DUP2 LT ISZERO PUSH2 0x10A JUMPI PUSH1 0x0 DUP1 REVERT JUMPDEST DUP2 ADD SWAP1 DUP1 DUP1 CALLDATALOAD PUSH20 0xFFFFFFFFFFFFFFFFFFFFFFFFFFFFFFFFFFFFFFFF AND SWAP1 PUSH1 0x20 ADD SWAP1 SWAP3 SWAP2 SWAP1 POP POP POP PUSH2 0x138 JUMP JUMPDEST STOP JUMPDEST ADDRESS PUSH20 0xFFFFFFFFFFFFFFFFFFFFFFFFFFFFFFFFFFFFFFFF AND CALLER PUSH20 0xFFFFFFFFFFFFFFFFFFFFFFFFFFFFFFFFFFFFFFFF AND EQ ISZERO ISZERO PUSH2 0x1BE JUMPI PUSH1 0x40 MLOAD PUSH32 0x8C379A000000000000000000000000000000000000000000000000000000000 DUP2 MSTORE PUSH1 0x4 ADD DUP1 DUP1 PUSH1 0x20 ADD DUP3 DUP2 SUB DUP3 MSTORE PUSH1 0x2C DUP2 MSTORE PUSH1 0x20 ADD DUP1 PUSH2 0x1FA PUSH1 0x2C SWAP2 CODECOPY PUSH1 0x40 ADD SWAP2 POP POP PUSH1 0x40 MLOAD DUP1 SWAP2 SUB SWAP1 REVERT JUMPDEST PUSH2 0x1C7 DUP2 PUSH2 0x1CA JUMP JUMPDEST POP JUMP JUMPDEST PUSH1 0x0 PUSH32 0x6C9A6C4A39284E37ED1CF53D337577D14212A4870FB976A4366C693B939918D5 PUSH1 0x1 MUL SWAP1 POP DUP2 DUP2 SSTORE POP POP JUMP INVALID 0x4d PUSH6 0x74686F642063 PUSH2 0x6E20 PUSH16 0x6E6C792062652063616C6C6564206672 PUSH16 0x6D207468697320636F6E7472616374A1 PUSH6 0x627A7A723058 KECCAK256 PUSH6 0x2B093EAB155E 0xb4 SSTORE 0x4c PUSH3 0xE3DEFA 0xf6 PUSH15 0x875DFBB6370F9F568C732502CA260D SWAP14 STOP 0x29 "
        },
        "methodIdentifiers": {
          "setFallbackHandler(address)": "f08a0323"
        }
      }
    }
  }
}