{
  "_format": "hh-sol-artifact-1",
  "contractName": "MockContract",
  "sourceName": "@gnosis.pm/mock-contract/contracts/MockContract.sol",
  "abi": [
    {
      "constant": false,
      "inputs": [],
      "name": "invocationCount",
      "outputs": [
        {
          "name": "",
          "type": "uint256"
        }
      ],
      "payable": false,
      "stateMutability": "nonpayable",
      "type": "function"
    },
    {
      "constant": false,
      "inputs": [
        {
          "name": "call",
          "type": "bytes"
        }
      ],
      "name": "givenCalldataRunOutOfGas",
      "outputs": [],
      "payable": false,
      "stateMutability": "nonpayable",
      "type": "function"
    },
    {
      "constant": true,
      "inputs": [],
      "name": "MOCKS_LIST_END_HASH",
      "outputs": [
        {
          "name": "",
          "type": "bytes32"
        }
      ],
      "payable": false,
      "stateMutability": "view",
      "type": "function"
    },
    {
      "constant": false,
      "inputs": [
        {
          "name": "response",
          "type": "bool"
        }
      ],
      "name": "givenAnyReturnBool",
      "outputs": [],
      "payable": false,
      "stateMutability": "nonpayable",
      "type": "function"
    },
    {
      "constant": false,
      "inputs": [],
      "name": "givenAnyRunOutOfGas",
      "outputs": [],
      "payable": false,
      "stateMutability": "nonpayable",
      "type": "function"
    },
    {
      "constant": false,
      "inputs": [
        {
          "name": "call",
          "type": "bytes"
        }
      ],
      "name": "invocationCountForMethod",
      "outputs": [
        {
          "name": "",
          "type": "uint256"
        }
      ],
      "payable": false,
      "stateMutability": "nonpayable",
      "type": "function"
    },
    {
      "constant": false,
      "inputs": [
        {
          "name": "call",
          "type": "bytes"
        }
      ],
      "name": "invocationCountForCalldata",
      "outputs": [
        {
          "name": "",
          "type": "uint256"
        }
      ],
      "payable": false,
      "stateMutability": "nonpayable",
      "type": "function"
    },
    {
      "constant": false,
      "inputs": [
        {
          "name": "call",
          "type": "bytes"
        },
        {
          "name": "response",
          "type": "bool"
        }
      ],
      "name": "givenCalldataReturnBool",
      "outputs": [],
      "payable": false,
      "stateMutability": "nonpayable",
      "type": "function"
    },
    {
      "constant": false,
      "inputs": [
        {
          "name": "call",
          "type": "bytes"
        },
        {
          "name": "response",
          "type": "bytes"
        }
      ],
      "name": "givenCalldataReturn",
      "outputs": [],
      "payable": false,
      "stateMutability": "nonpayable",
      "type": "function"
    },
    {
      "constant": true,
      "inputs": [],
      "name": "MOCKS_LIST_START",
      "outputs": [
        {
          "name": "",
          "type": "bytes32"
        }
      ],
      "payable": false,
      "stateMutability": "view",
      "type": "function"
    },
    {
      "constant": false,
      "inputs": [
        {
          "name": "response",
          "type": "address"
        }
      ],
      "name": "givenAnyReturnAddress",
      "outputs": [],
      "payable": false,
      "stateMutability": "nonpayable",
      "type": "function"
    },
    {
      "constant": false,
      "inputs": [
        {
          "name": "call",
          "type": "bytes"
        }
      ],
      "name": "givenMethodRunOutOfGas",
      "outputs": [],
      "payable": false,
      "stateMutability": "nonpayable",
      "type": "function"
    },
    {
      "constant": false,
      "inputs": [
        {
          "name": "call",
          "type": "bytes"
        },
        {
          "name": "response",
          "type": "bool"
        }
      ],
      "name": "givenMethodReturnBool",
      "outputs": [],
      "payable": false,
      "stateMutability": "nonpayable",
      "type": "function"
    },
    {
      "constant": true,
      "inputs": [],
      "name": "MOCKS_LIST_END",
      "outputs": [
        {
          "name": "",
          "type": "bytes"
        }
      ],
      "payable": false,
      "stateMutability": "view",
      "type": "function"
    },
    {
      "constant": false,
      "inputs": [
        {
          "name": "message",
          "type": "string"
        }
      ],
      "name": "givenAnyRevertWithMessage",
      "outputs": [],
      "payable": false,
      "stateMutability": "nonpayable",
      "type": "function"
    },
    {
      "constant": false,
      "inputs": [
        {
          "name": "call",
          "type": "bytes"
        },
        {
          "name": "message",
          "type": "string"
        }
      ],
      "name": "givenMethodRevertWithMessage",
      "outputs": [],
      "payable": false,
      "stateMutability": "nonpayable",
      "type": "function"
    },
    {
      "constant": false,
      "inputs": [
        {
          "name": "call",
          "type": "bytes"
        },
        {
          "name": "message",
          "type": "string"
        }
      ],
      "name": "givenCalldataRevertWithMessage",
      "outputs": [],
      "payable": false,
      "stateMutability": "nonpayable",
      "type": "function"
    },
    {
      "constant": false,
      "inputs": [
        {
          "name": "call",
          "type": "bytes"
        }
      ],
      "name": "givenMethodRevert",
      "outputs": [],
      "payable": false,
      "stateMutability": "nonpayable",
      "type": "function"
    },
    {
      "constant": false,
      "inputs": [
        {
          "name": "response",
          "type": "uint256"
        }
      ],
      "name": "givenAnyReturnUint",
      "outputs": [],
      "payable": false,
      "stateMutability": "nonpayable",
      "type": "function"
    },
    {
      "constant": false,
      "inputs": [
        {
          "name": "call",
          "type": "bytes"
        },
        {
          "name": "response",
          "type": "address"
        }
      ],
      "name": "givenCalldataReturnAddress",
      "outputs": [],
      "payable": false,
      "stateMutability": "nonpayable",
      "type": "function"
    },
    {
      "constant": false,
      "inputs": [
        {
          "name": "call",
          "type": "bytes"
        },
        {
          "name": "response",
          "type": "bytes"
        }
      ],
      "name": "givenMethodReturn",
      "outputs": [],
      "payable": false,
      "stateMutability": "nonpayable",
      "type": "function"
    },
    {
      "constant": false,
      "inputs": [
        {
          "name": "call",
          "type": "bytes"
        },
        {
          "name": "response",
          "type": "address"
        }
      ],
      "name": "givenMethodReturnAddress",
      "outputs": [],
      "payable": false,
      "stateMutability": "nonpayable",
      "type": "function"
    },
    {
      "constant": false,
      "inputs": [
        {
          "name": "response",
          "type": "bytes"
        }
      ],
      "name": "givenAnyReturn",
      "outputs": [],
      "payable": false,
      "stateMutability": "nonpayable",
      "type": "function"
    },
    {
      "constant": false,
      "inputs": [
        {
          "name": "call",
          "type": "bytes"
        },
        {
          "name": "response",
          "type": "uint256"
        }
      ],
      "name": "givenCalldataReturnUint",
      "outputs": [],
      "payable": false,
      "stateMutability": "nonpayable",
      "type": "function"
    },
    {
      "constant": false,
      "inputs": [],
      "name": "reset",
      "outputs": [],
      "payable": false,
      "stateMutability": "nonpayable",
      "type": "function"
    },
    {
      "constant": false,
      "inputs": [],
      "name": "givenAnyRevert",
      "outputs": [],
      "payable": false,
      "stateMutability": "nonpayable",
      "type": "function"
    },
    {
      "constant": false,
      "inputs": [
        {
          "name": "call",
          "type": "bytes"
        }
      ],
      "name": "givenCalldataRevert",
      "outputs": [],
      "payable": false,
      "stateMutability": "nonpayable",
      "type": "function"
    },
    {
      "constant": true,
      "inputs": [],
      "name": "SENTINEL_ANY_MOCKS",
      "outputs": [
        {
          "name": "",
          "type": "bytes4"
        }
      ],
      "payable": false,
      "stateMutability": "view",
      "type": "function"
    },
    {
      "constant": false,
      "inputs": [
        {
          "name": "call",
          "type": "bytes"
        },
        {
          "name": "response",
          "type": "uint256"
        }
      ],
      "name": "givenMethodReturnUint",
      "outputs": [],
      "payable": false,
      "stateMutability": "nonpayable",
      "type": "function"
    },
    {
      "inputs": [],
      "payable": false,
      "stateMutability": "nonpayable",
      "type": "constructor"
    },
    {
      "payable": true,
      "stateMutability": "payable",
      "type": "fallback"
    }
  ],
  "bytecode": "0x60806040523480156200001157600080fd5b506040805190810160405280600481526020017f30786666000000000000000000000000000000000000000000000000000000008152506000807f0100000000000000000000000000000000000000000000000000000000000000815260200190815260200160002090805190602001906200008f92919062000160565b507f0100000000000000000000000000000000000000000000000000000000000000600560007f01000000000000000000000000000000000000000000000000000000000000007bffffffffffffffffffffffffffffffffffffffffffffffffffffffff19167bffffffffffffffffffffffffffffffffffffffffffffffffffffffff1916815260200190815260200160002060006101000a81548163ffffffff02191690837c0100000000000000000000000000000000000000000000000000000000900402179055506200020f565b828054600181600116156101000203166002900490600052602060002090601f016020900481019282601f10620001a357805160ff1916838001178555620001d4565b82800160010185558215620001d4579182015b82811115620001d3578251825591602001919060010190620001b6565b5b509050620001e39190620001e7565b5090565b6200020c91905b8082111562000208576000816000905550600101620001ee565b5090565b90565b6137e4806200021f6000396000f3fe6080604052600436106101df576000357c01000000000000000000000000000000000000000000000000000000009004806387abab6511610114578063cf11ff5d116100b2578063e211b8a511610081578063e211b8a51461165f578063eb861f6914611676578063f07da229146116fc578063f5afa9c114611765576101df565b8063cf11ff5d1461148c578063d6fe977814611532578063d73ca0ac146115b8578063d826f88f14611648576101df565b8063aa788c55116100ee578063aa788c551461124a578063af21ac78146112d0578063b3901f291461130b578063c6ee167f146113b1576101df565b806387abab651461100e5780639a1dc86b146110945780639eaeed751461116f576101df565b80635a3855ab11610181578063682b47971161015b578063682b479714610e1557806368ab6f2f14610e665780636f40075614610eec5780637cd96ee414610f7e576101df565b80635a3855ab14610c7d5780636193659414610d0f57806367aad04a14610dea576101df565b806336ff0ee5116101bd57806336ff0ee514610af55780633956dc6b14610b325780634937c4f614610b49578063586984a414610be3576101df565b80630a20119f14610a1957806321fed4d614610a445780632ed238dc14610aca575b600080359050600160028111156101f257fe5b6001600036604051808383808284378083019250505092505050908152602001604051809103902060009054906101000a900460ff16600281111561023357fe5b141561031f57600360003660405180838380828437808301925050509250505090815260200160405180910390206040517f08c379a000000000000000000000000000000000000000000000000000000000815260040180806020018281038252838181546001816001161561010002031660029004815260200191508054600181600116156101000203166002900480156103105780601f106102e557610100808354040283529160200191610310565b820191906000526020600020905b8154815290600101906020018083116102f357829003601f168201915b50509250505060405180910390fd5b60028081111561032b57fe5b6001600036604051808383808284378083019250505092505050908152602001604051809103902060009054906101000a900460ff16600281111561036c57fe5b141561037b5761037a6117f5565b5b6060600260003660405180838380828437808301925050509250505090815260200160405180910390208054600181600116156101000203166002900480601f0160208091040260200160405190810160405280929190818152602001828054600181600116156101000203166002900480156104395780601f1061040e57610100808354040283529160200191610439565b820191906000526020600020905b81548152906001019060200180831161041c57829003601f168201915b50505050509050600081511415610748576001600281111561045757fe5b60066000847bffffffffffffffffffffffffffffffffffffffffffffffffffffffff19167bffffffffffffffffffffffffffffffffffffffffffffffffffffffff1916815260200190815260200160002060009054906101000a900460ff1660028111156104c157fe5b14156105d65760086000837bffffffffffffffffffffffffffffffffffffffffffffffffffffffff19167bffffffffffffffffffffffffffffffffffffffffffffffffffffffff191681526020019081526020016000206040517f08c379a000000000000000000000000000000000000000000000000000000000815260040180806020018281038252838181546001816001161561010002031660029004815260200191508054600181600116156101000203166002900480156105c75780601f1061059c576101008083540402835291602001916105c7565b820191906000526020600020905b8154815290600101906020018083116105aa57829003601f168201915b50509250505060405180910390fd5b6002808111156105e257fe5b60066000847bffffffffffffffffffffffffffffffffffffffffffffffffffffffff19167bffffffffffffffffffffffffffffffffffffffffffffffffffffffff1916815260200190815260200160002060009054906101000a900460ff16600281111561064c57fe5b141561065b5761065a6117f5565b5b60076000837bffffffffffffffffffffffffffffffffffffffffffffffffffffffff19167bffffffffffffffffffffffffffffffffffffffffffffffffffffffff191681526020019081526020016000208054600181600116156101000203166002900480601f0160208091040260200160405190810160405280929190818152602001828054600181600116156101000203166002900480156107405780601f1061071557610100808354040283529160200191610740565b820191906000526020600020905b81548152906001019060200180831161072357829003601f168201915b505050505090505b600081511415610914576001600281111561075f57fe5b600a60009054906101000a900460ff16600281111561077a57fe5b141561084057600c6040517f08c379a000000000000000000000000000000000000000000000000000000000815260040180806020018281038252838181546001816001161561010002031660029004815260200191508054600181600116156101000203166002900480156108315780601f1061080657610100808354040283529160200191610831565b820191906000526020600020905b81548152906001019060200180831161081457829003601f168201915b50509250505060405180910390fd5b60028081111561084c57fe5b600a60009054906101000a900460ff16600281111561086757fe5b1415610876576108756117f5565b5b600b8054600181600116156101000203166002900480601f01602080910402602001604051908101604052809291908181526020018280546001816001161561010002031660029004801561090c5780601f106108e15761010080835404028352916020019161090c565b820191906000526020600020905b8154815290600101906020018083116108ef57829003601f168201915b505050505090505b6001600d60008282540192505081905550600160096000600e548560405160200180838152602001827bffffffffffffffffffffffffffffffffffffffffffffffffffffffff19167bffffffffffffffffffffffffffffffffffffffffffffffffffffffff191681526004019250505060405160208183030381529060405280519060200120815260200190815260200160002060008282540192505081905550600160046000600e546000366040516020018084815260200183838082843780830192505050935050505060405160208183030381529060405280519060200120815260200190815260200160002060008282540192505081905550805181602001f35b348015610a2557600080fd5b50610a2e61181a565b6040518082815260200191505060405180910390f35b348015610a5057600080fd5b50610ac860048036036020811015610a6757600080fd5b8101908080359060200190640100000000811115610a8457600080fd5b820183602082011115610a9657600080fd5b80359060200191846001830284011164010000000083111715610ab857600080fd5b9091929391929390505050611824565b005b348015610ad657600080fd5b50610adf6118be565b6040518082815260200191505060405180910390f35b348015610b0157600080fd5b50610b3060048036036020811015610b1857600080fd5b81019080803515159060200190929190505050611959565b005b348015610b3e57600080fd5b50610b47611984565b005b348015610b5557600080fd5b50610bcd60048036036020811015610b6c57600080fd5b8101908080359060200190640100000000811115610b8957600080fd5b820183602082011115610b9b57600080fd5b80359060200191846001830284011164010000000083111715610bbd57600080fd5b90919293919293905050506119aa565b6040518082815260200191505060405180910390f35b348015610bef57600080fd5b50610c6760048036036020811015610c0657600080fd5b8101908080359060200190640100000000811115610c2357600080fd5b820183602082011115610c3557600080fd5b80359060200191846001830284011164010000000083111715610c5757600080fd5b9091929391929390505050611a87565b6040518082815260200191505060405180910390f35b348015610c8957600080fd5b50610d0d60048036036040811015610ca057600080fd5b8101908080359060200190640100000000811115610cbd57600080fd5b820183602082011115610ccf57600080fd5b80359060200191846001830284011164010000000083111715610cf157600080fd5b9091929391929390803515159060200190929190505050611ade565b005b348015610d1b57600080fd5b50610de860048036036040811015610d3257600080fd5b8101908080359060200190640100000000811115610d4f57600080fd5b820183602082011115610d6157600080fd5b80359060200191846001830284011164010000000083111715610d8357600080fd5b909192939192939080359060200190640100000000811115610da457600080fd5b820183602082011115610db657600080fd5b80359060200191846001830284011164010000000083111715610dd857600080fd5b9091929391929390505050611b50565b005b348015610df657600080fd5b50610dff611be8565b6040518082815260200191505060405180910390f35b348015610e2157600080fd5b50610e6460048036036020811015610e3857600080fd5b81019080803573ffffffffffffffffffffffffffffffffffffffff169060200190929190505050611c0c565b005b348015610e7257600080fd5b50610eea60048036036020811015610e8957600080fd5b8101908080359060200190640100000000811115610ea657600080fd5b820183602082011115610eb857600080fd5b80359060200191846001830284011164010000000083111715610eda57600080fd5b9091929391929390505050611c20565b005b348015610ef857600080fd5b50610f7c60048036036040811015610f0f57600080fd5b8101908080359060200190640100000000811115610f2c57600080fd5b820183602082011115610f3e57600080fd5b80359060200191846001830284011164010000000083111715610f6057600080fd5b9091929391929390803515159060200190929190505050611cf2565b005b348015610f8a57600080fd5b50610f93611d64565b6040518080602001828103825283818151815260200191508051906020019080838360005b83811015610fd3578082015181840152602081019050610fb8565b50505050905090810190601f1680156110005780820380516001836020036101000a031916815260200191505b509250505060405180910390f35b34801561101a57600080fd5b506110926004803603602081101561103157600080fd5b810190808035906020019064010000000081111561104e57600080fd5b82018360208201111561106057600080fd5b8035906020019184600183028401116401000000008311171561108257600080fd5b9091929391929390505050611d9d565b005b3480156110a057600080fd5b5061116d600480360360408110156110b757600080fd5b81019080803590602001906401000000008111156110d457600080fd5b8201836020820111156110e657600080fd5b8035906020019184600183028401116401000000008311171561110857600080fd5b90919293919293908035906020019064010000000081111561112957600080fd5b82018360208201111561113b57600080fd5b8035906020019184600183028401116401000000008311171561115d57600080fd5b9091929391929390505050611dd7565b005b34801561117b57600080fd5b506112486004803603604081101561119257600080fd5b81019080803590602001906401000000008111156111af57600080fd5b8201836020820111156111c157600080fd5b803590602001918460018302840111640100000000831117156111e357600080fd5b90919293919293908035906020019064010000000081111561120457600080fd5b82018360208201111561121657600080fd5b8035906020019184600183028401116401000000008311171561123857600080fd5b9091929391929390505050611f0c565b005b34801561125657600080fd5b506112ce6004803603602081101561126d57600080fd5b810190808035906020019064010000000081111561128a57600080fd5b82018360208201111561129c57600080fd5b803590602001918460018302840111640100000000831117156112be57600080fd5b9091929391929390505050611fde565b005b3480156112dc57600080fd5b50611309600480360360208110156112f357600080fd5b81019080803590602001909291905050506120b0565b005b34801561131757600080fd5b506113af6004803603604081101561132e57600080fd5b810190808035906020019064010000000081111561134b57600080fd5b82018360208201111561135d57600080fd5b8035906020019184600183028401116401000000008311171561137f57600080fd5b9091929391929390803573ffffffffffffffffffffffffffffffffffffffff1690602001909291905050506120c4565b005b3480156113bd57600080fd5b5061148a600480360360408110156113d457600080fd5b81019080803590602001906401000000008111156113f157600080fd5b82018360208201111561140357600080fd5b8035906020019184600183028401116401000000008311171561142557600080fd5b90919293919293908035906020019064010000000081111561144657600080fd5b82018360208201111561145857600080fd5b8035906020019184600183028401116401000000008311171561147a57600080fd5b909192939192939050505061211f565b005b34801561149857600080fd5b50611530600480360360408110156114af57600080fd5b81019080803590602001906401000000008111156114cc57600080fd5b8201836020820111156114de57600080fd5b8035906020019184600183028401116401000000008311171561150057600080fd5b9091929391929390803573ffffffffffffffffffffffffffffffffffffffff1690602001909291905050506121b7565b005b34801561153e57600080fd5b506115b66004803603602081101561155557600080fd5b810190808035906020019064010000000081111561157257600080fd5b82018360208201111561158457600080fd5b803590602001918460018302840111640100000000831117156115a657600080fd5b9091929391929390505050612212565b005b3480156115c457600080fd5b50611646600480360360408110156115db57600080fd5b81019080803590602001906401000000008111156115f857600080fd5b82018360208201111561160a57600080fd5b8035906020019184600183028401116401000000008311171561162c57600080fd5b909192939192939080359060200190929190505050612263565b005b34801561165457600080fd5b5061165d6122be565b005b34801561166b57600080fd5b50611674612c21565b005b34801561168257600080fd5b506116fa6004803603602081101561169957600080fd5b81019080803590602001906401000000008111156116b657600080fd5b8201836020820111156116c857600080fd5b803590602001918460018302840111640100000000831117156116ea57600080fd5b9091929391929390505050612c6e565b005b34801561170857600080fd5b50611711612d53565b60405180827bffffffffffffffffffffffffffffffffffffffffffffffffffffffff19167bffffffffffffffffffffffffffffffffffffffffffffffffffffffff1916815260200191505060405180910390f35b34801561177157600080fd5b506117f36004803603604081101561178857600080fd5b81019080803590602001906401000000008111156117a557600080fd5b8201836020820111156117b757600080fd5b803590602001918460018302840111640100000000831117156117d957600080fd5b909192939192939080359060200190929190505050612d77565b005b5b6001156118185760006060600060c060008060066107d05a03f19050506117f6565b565b6000600d54905090565b600260018383604051808383808284378083019250505092505050908152602001604051809103902060006101000a81548160ff0219169083600281111561186857fe5b02179055506118ba82828080601f016020809104026020016040519081016040528093929190818152602001838380828437600081840152601f19601f82011690508083019250505050505050612dd2565b5050565b6040805190810160405280600481526020017f30786666000000000000000000000000000000000000000000000000000000008152506040518082805190602001908083835b6020831015156119295780518252602082019150602081019050602083039250611904565b6001836020036101000a038019825116818451168082178552505050505050905001915050604051809103902081565b60008161196757600061196a565b60015b60ff16905061198061197b82612ebd565b612f01565b5050565b6002600a60006101000a81548160ff021916908360028111156119a357fe5b0217905550565b6000806119fa84848080601f016020809104026020016040519081016040528093929190818152602001838380828437600081840152601f19601f82011690508083019250505050505050612f3f565b905060096000600e548360405160200180838152602001827bffffffffffffffffffffffffffffffffffffffffffffffffffffffff19167bffffffffffffffffffffffffffffffffffffffffffffffffffffffff19168152600401925050506040516020818303038152906040528051906020012081526020019081526020016000205491505092915050565b600060046000600e5485856040516020018084815260200183838082843780830192505050935050505060405160208183030381529060405280519060200120815260200190815260200160002054905092915050565b600081611aec576000611aef565b60015b60ff169050611b4a84848080601f016020809104026020016040519081016040528093929190818152602001838380828437600081840152601f19601f82011690508083019250505050505050611b4583612ebd565b613039565b50505050565b611be284848080601f016020809104026020016040519081016040528093929190818152602001838380828437600081840152601f19601f8201169050808301925050505050505083838080601f016020809104026020016040519081016040528093929190818152602001838380828437600081840152601f19601f82011690508083019250505050505050613039565b50505050565b7f010000000000000000000000000000000000000000000000000000000000000081565b611c1d611c1882613153565b612f01565b50565b6000611c6f83838080601f016020809104026020016040519081016040528093929190818152602001838380828437600081840152601f19601f82011690508083019250505050505050612f3f565b9050600260066000837bffffffffffffffffffffffffffffffffffffffffffffffffffffffff19167bffffffffffffffffffffffffffffffffffffffffffffffffffffffff1916815260200190815260200160002060006101000a81548160ff02191690836002811115611cdf57fe5b0217905550611ced81613185565b505050565b600081611d00576000611d03565b60015b60ff169050611d5e84848080601f016020809104026020016040519081016040528093929190818152602001838380828437600081840152601f19601f82011690508083019250505050505050611d5983612ebd565b613418565b50505050565b6040805190810160405280600481526020017f307866660000000000000000000000000000000000000000000000000000000081525081565b6001600a60006101000a81548160ff02191690836002811115611dbc57fe5b02179055508181600c9190611dd292919061350c565b505050565b6000611e2685858080601f016020809104026020016040519081016040528093929190818152602001838380828437600081840152601f19601f82011690508083019250505050505050612f3f565b9050600160066000837bffffffffffffffffffffffffffffffffffffffffffffffffffffffff19167bffffffffffffffffffffffffffffffffffffffffffffffffffffffff1916815260200190815260200160002060006101000a81548160ff02191690836002811115611e9657fe5b0217905550828260086000847bffffffffffffffffffffffffffffffffffffffffffffffffffffffff19167bffffffffffffffffffffffffffffffffffffffffffffffffffffffff191681526020019081526020016000209190611efb92919061350c565b50611f0581613185565b5050505050565b6001808585604051808383808284378083019250505092505050908152602001604051809103902060006101000a81548160ff02191690836002811115611f4f57fe5b021790555081816003868660405180838380828437808301925050509250505090815260200160405180910390209190611f8a92919061350c565b50611fd884848080601f016020809104026020016040519081016040528093929190818152602001838380828437600081840152601f19601f82011690508083019250505050505050612dd2565b50505050565b600061202d83838080601f016020809104026020016040519081016040528093929190818152602001838380828437600081840152601f19601f82011690508083019250505050505050612f3f565b9050600160066000837bffffffffffffffffffffffffffffffffffffffffffffffffffffffff19167bffffffffffffffffffffffffffffffffffffffffffffffffffffffff1916815260200190815260200160002060006101000a81548160ff0219169083600281111561209d57fe5b02179055506120ab81613185565b505050565b6120c16120bc82612ebd565b612f01565b50565b61211a83838080601f016020809104026020016040519081016040528093929190818152602001838380828437600081840152601f19601f8201169050808301925050505050505061211583613153565b613039565b505050565b6121b184848080601f016020809104026020016040519081016040528093929190818152602001838380828437600081840152601f19601f8201169050808301925050505050505083838080601f016020809104026020016040519081016040528093929190818152602001838380828437600081840152601f19601f82011690508083019250505050505050613418565b50505050565b61220d83838080601f016020809104026020016040519081016040528093929190818152602001838380828437600081840152601f19601f8201169050808301925050505050505061220883613153565b613418565b505050565b61225f82828080601f016020809104026020016040519081016040528093929190818152602001838380828437600081840152601f19601f82011690508083019250505050505050612f01565b5050565b6122b983838080601f016020809104026020016040519081016040528093929190818152602001838380828437600081840152601f19601f820116905080830192505050505050506122b483612ebd565b613039565b505050565b60606000807f010000000000000000000000000000000000000000000000000000000000000081526020019081526020016000208054600181600116156101000203166002900480601f0160208091040260200160405190810160405280929190818152602001828054600181600116156101000203166002900480156123865780601f1061235b57610100808354040283529160200191612386565b820191906000526020600020905b81548152906001019060200180831161236957829003601f168201915b505050505090506000818051906020012090505b6040805190810160405280600481526020017f30786666000000000000000000000000000000000000000000000000000000008152506040518082805190602001908083835b60208310151561240557805182526020820191506020810190506020830392506123e0565b6001836020036101000a0380198251168184511680821785525050505050509050019150506040518091039020811415156126da5760006001836040518082805190602001908083835b602083101515612474578051825260208201915060208101905060208303925061244f565b6001836020036101000a038019825116818451168082178552505050505050905001915050908152602001604051809103902060006101000a81548160ff021916908360028111156124c257fe5b021790555060206040519081016040528060008152506002836040518082805190602001908083835b60208310151561251057805182526020820191506020810190506020830392506124eb565b6001836020036101000a0380198251168184511680821785525050505050509050019150509081526020016040518091039020908051906020019061255692919061358c565b5060206040519081016040528060008152506003836040518082805190602001908083835b6020831015156125a0578051825260208201915060208101905060208303925061257b565b6001836020036101000a038019825116818451168082178552505050505050905001915050908152602001604051809103902090805190602001906125e692919061360c565b506000808281526020019081526020016000208054600181600116156101000203166002900480601f01602080910402602001604051908101604052809291908181526020018280546001816001161561010002031660029004801561268d5780601f106126625761010080835404028352916020019161268d565b820191906000526020600020905b81548152906001019060200180831161267057829003601f168201915b50505050509150602060405190810160405280600081525060008083815260200190815260200160002090805190602001906126ca92919061358c565b508180519060200120905061239a565b6040805190810160405280600481526020017f30786666000000000000000000000000000000000000000000000000000000008152506000807f01000000000000000000000000000000000000000000000000000000000000008152602001908152602001600020908051906020019061275592919061368c565b506000600560007f01000000000000000000000000000000000000000000000000000000000000007bffffffffffffffffffffffffffffffffffffffffffffffffffffffff19167bffffffffffffffffffffffffffffffffffffffffffffffffffffffff1916815260200190815260200160002060009054906101000a90047c01000000000000000000000000000000000000000000000000000000000290505b7f01000000000000000000000000000000000000000000000000000000000000007bffffffffffffffffffffffffffffffffffffffffffffffffffffffff1916817bffffffffffffffffffffffffffffffffffffffffffffffffffffffff1916141515612aee576000819050600060066000837bffffffffffffffffffffffffffffffffffffffffffffffffffffffff19167bffffffffffffffffffffffffffffffffffffffffffffffffffffffff1916815260200190815260200160002060006101000a81548160ff021916908360028111156128d057fe5b0217905550602060405190810160405280600081525060076000837bffffffffffffffffffffffffffffffffffffffffffffffffffffffff19167bffffffffffffffffffffffffffffffffffffffffffffffffffffffff19168152602001908152602001600020908051906020019061294a92919061358c565b50602060405190810160405280600081525060086000837bffffffffffffffffffffffffffffffffffffffffffffffffffffffff19167bffffffffffffffffffffffffffffffffffffffffffffffffffffffff1916815260200190815260200160002090805190602001906129c092919061360c565b5060056000827bffffffffffffffffffffffffffffffffffffffffffffffffffffffff19167bffffffffffffffffffffffffffffffffffffffffffffffffffffffff1916815260200190815260200160002060009054906101000a90047c010000000000000000000000000000000000000000000000000000000002915060007c01000000000000000000000000000000000000000000000000000000000260056000837bffffffffffffffffffffffffffffffffffffffffffffffffffffffff19167bffffffffffffffffffffffffffffffffffffffffffffffffffffffff1916815260200190815260200160002060006101000a81548163ffffffff02191690837c010000000000000000000000000000000000000000000000000000000090040217905550506127f6565b7f0100000000000000000000000000000000000000000000000000000000000000600560007f01000000000000000000000000000000000000000000000000000000000000007bffffffffffffffffffffffffffffffffffffffffffffffffffffffff19167bffffffffffffffffffffffffffffffffffffffffffffffffffffffff1916815260200190815260200160002060006101000a81548163ffffffff02191690837c0100000000000000000000000000000000000000000000000000000000900402179055506020604051908101604052806000815250600b9080519060200190612bde92919061358c565b506000600a60006101000a81548160ff02191690836002811115612bfe57fe5b02179055506000600d819055506001600e60008282540192505081905550505050565b6001600a60006101000a81548160ff02191690836002811115612c4057fe5b02179055506020604051908101604052806000815250600c9080519060200190612c6b92919061360c565b50565b6001808383604051808383808284378083019250505092505050908152602001604051809103902060006101000a81548160ff02191690836002811115612cb157fe5b021790555060206040519081016040528060008152506003838360405180838380828437808301925050509250505090815260200160405180910390209080519060200190612d0192919061360c565b50612d4f82828080601f016020809104026020016040519081016040528093929190818152602001838380828437600081840152601f19601f82011690508083019250505050505050612dd2565b5050565b7f010000000000000000000000000000000000000000000000000000000000000081565b612dcd83838080601f016020809104026020016040519081016040528093929190818152602001838380828437600081840152601f19601f82011690508083019250505050505050612dc883612ebd565b613418565b505050565b60008180519060200120905060008060008381526020019081526020016000208054600181600116156101000203166002900490501415612eb9576000807f010000000000000000000000000000000000000000000000000000000000000081526020019081526020016000206000808381526020019081526020016000209080546001816001161561010002031660029004612e7092919061370c565b50816000807f010000000000000000000000000000000000000000000000000000000000000081526020019081526020016000209080519060200190612eb792919061368c565b505b5050565b606060206040519080825280601f01601f191660200182016040528015612ef35781602001600182028038833980820191505090505b509050816020820152919050565b6000600a60006101000a81548160ff02191690836002811115612f2057fe5b021790555080600b9080519060200190612f3b92919061368c565b5050565b60008060008090505b600481101561302f576008810260ff7f0100000000000000000000000000000000000000000000000000000000000000028583815181101515612f8757fe5b9060200101517f010000000000000000000000000000000000000000000000000000000000000090047f010000000000000000000000000000000000000000000000000000000000000002167effffffffffffffffffffffffffffffffffffffffffffffffffffffffffffff19167bffffffffffffffffffffffffffffffffffffffffffffffffffffffff1916908060020a8204915050821791508080600101915050612f48565b5080915050919050565b60006001836040518082805190602001908083835b602083101515613073578051825260208201915060208101905060208303925061304e565b6001836020036101000a038019825116818451168082178552505050505050905001915050908152602001604051809103902060006101000a81548160ff021916908360028111156130c157fe5b0217905550806002836040518082805190602001908083835b6020831015156130ff57805182526020820191506020810190506020830392506130da565b6001836020036101000a0380198251168184511680821785525050505050509050019150509081526020016040518091039020908051906020019061314592919061368c565b5061314f82612dd2565b5050565b606060405182741400000000000000000000000000000000000000001860148201526034810160405280915050919050565b60007c01000000000000000000000000000000000000000000000000000000000260056000837bffffffffffffffffffffffffffffffffffffffffffffffffffffffff19167bffffffffffffffffffffffffffffffffffffffffffffffffffffffff1916815260200190815260200160002060009054906101000a90047c0100000000000000000000000000000000000000000000000000000000027bffffffffffffffffffffffffffffffffffffffffffffffffffffffff1916141561341557600560007f01000000000000000000000000000000000000000000000000000000000000007bffffffffffffffffffffffffffffffffffffffffffffffffffffffff19167bffffffffffffffffffffffffffffffffffffffffffffffffffffffff1916815260200190815260200160002060009054906101000a90047c01000000000000000000000000000000000000000000000000000000000260056000837bffffffffffffffffffffffffffffffffffffffffffffffffffffffff19167bffffffffffffffffffffffffffffffffffffffffffffffffffffffff1916815260200190815260200160002060006101000a81548163ffffffff02191690837c01000000000000000000000000000000000000000000000000000000009004021790555080600560007f01000000000000000000000000000000000000000000000000000000000000007bffffffffffffffffffffffffffffffffffffffffffffffffffffffff19167bffffffffffffffffffffffffffffffffffffffffffffffffffffffff1916815260200190815260200160002060006101000a81548163ffffffff02191690837c0100000000000000000000000000000000000000000000000000000000900402179055505b50565b600061342383612f3f565b9050600060066000837bffffffffffffffffffffffffffffffffffffffffffffffffffffffff19167bffffffffffffffffffffffffffffffffffffffffffffffffffffffff1916815260200190815260200160002060006101000a81548160ff0219169083600281111561349357fe5b02179055508160076000837bffffffffffffffffffffffffffffffffffffffffffffffffffffffff19167bffffffffffffffffffffffffffffffffffffffffffffffffffffffff1916815260200190815260200160002090805190602001906134fd92919061368c565b5061350781613185565b505050565b828054600181600116156101000203166002900490600052602060002090601f016020900481019282601f1061354d57803560ff191683800117855561357b565b8280016001018555821561357b579182015b8281111561357a57823582559160200191906001019061355f565b5b5090506135889190613793565b5090565b828054600181600116156101000203166002900490600052602060002090601f016020900481019282601f106135cd57805160ff19168380011785556135fb565b828001600101855582156135fb579182015b828111156135fa5782518255916020019190600101906135df565b5b5090506136089190613793565b5090565b828054600181600116156101000203166002900490600052602060002090601f016020900481019282601f1061364d57805160ff191683800117855561367b565b8280016001018555821561367b579182015b8281111561367a57825182559160200191906001019061365f565b5b5090506136889190613793565b5090565b828054600181600116156101000203166002900490600052602060002090601f016020900481019282601f106136cd57805160ff19168380011785556136fb565b828001600101855582156136fb579182015b828111156136fa5782518255916020019190600101906136df565b5b5090506137089190613793565b5090565b828054600181600116156101000203166002900490600052602060002090601f016020900481019282601f106137455780548555613782565b8280016001018555821561378257600052602060002091601f016020900482015b82811115613781578254825591600101919060010190613766565b5b50905061378f9190613793565b5090565b6137b591905b808211156137b1576000816000905550600101613799565b5090565b9056fea165627a7a723058200a78619d3fc62dd371b5d2494dccf4d56e4ae67f9182736f61460c6f57df9dce0029",
  "linkReferences": {},
  "deployedLinkReferences": {}
}