{
  "_format": "hh-sol-artifact-1",
  "contractName": "FallbackManager",
  "sourceName": "contracts/base/FallbackManager.sol",
  "abi": [
    {
      "constant": false,
      "inputs": [
        {
          "name": "handler",
          "type": "address"
        }
      ],
      "name": "setFallbackHandler",
      "outputs": [],
      "payable": false,
      "stateMutability": "nonpayable",
      "type": "function"
    },
    {
      "payable": true,
      "stateMutability": "payable",
      "type": "fallback"
    }
  ],
  "bytecode": "0x608060405234801561001057600080fd5b50610251806100206000396000f3fe60806040526004361061003b576000357c010000000000000000000000000000000000000000000000000000000090048063f08a0323146100e7575b600034118061004d5750600080369050145b15610057576100e5565b60007f6c9a6c4a39284e37ed1cf53d337577d14212a4870fb976a4366c693b939918d56001029050600081549050600073ffffffffffffffffffffffffffffffffffffffff168173ffffffffffffffffffffffffffffffffffffffff161415156100e257366000803760008036600080855af13d6000803e60008114156100dd573d6000fd5b3d6000f35b50505b005b3480156100f357600080fd5b506101366004803603602081101561010a57600080fd5b81019080803573ffffffffffffffffffffffffffffffffffffffff169060200190929190505050610138565b005b3073ffffffffffffffffffffffffffffffffffffffff163373ffffffffffffffffffffffffffffffffffffffff161415156101be576040517f08c379a000000000000000000000000000000000000000000000000000000000815260040180806020018281038252602c8152602001806101fa602c913960400191505060405180910390fd5b6101c7816101ca565b50565b60007f6c9a6c4a39284e37ed1cf53d337577d14212a4870fb976a4366c693b939918d56001029050818155505056fe4d6574686f642063616e206f6e6c792062652063616c6c65642066726f6d207468697320636f6e7472616374a165627a7a72305820652b093eab155eb4554c62e3defaf66e875dfbb6370f9f568c732502ca260d9d0029",
  "linkReferences": {},
  "deployedLinkReferences": {}
}